{
  "_format": "hh-sol-artifact-1",
  "contractName": "TournamentStore",
  "sourceName": "contracts/tournamentstore.sol",
  "abi": [
    {
      "anonymous": false,
      "inputs": [
        {
          "indexed": true,
          "internalType": "address",
          "name": "_lastOwner",
          "type": "address"
        },
        {
          "indexed": true,
          "internalType": "address",
          "name": "_newOwner",
          "type": "address"
        }
      ],
      "name": "OwnerShipTransferred",
      "type": "event"
    },
    {
      "anonymous": false,
      "inputs": [
        {
          "indexed": false,
          "internalType": "uint256",
          "name": "_tounrnamentId",
          "type": "uint256"
        }
      ],
      "name": "TournamentScoreStored",
      "type": "event"
    },
    {
      "inputs": [],
      "name": "getOwner",
      "outputs": [
        {
          "internalType": "address",
          "name": "",
          "type": "address"
        }
      ],
      "stateMutability": "view",
      "type": "function"
    },
    {
      "inputs": [
        {
          "internalType": "uint256",
          "name": "_id",
          "type": "uint256"
        }
      ],
      "name": "getTournamentScore",
      "outputs": [
        {
          "internalType": "uint256[]",
          "name": "",
          "type": "uint256[]"
        },
        {
          "internalType": "uint256[]",
          "name": "",
          "type": "uint256[]"
        },
        {
          "internalType": "string",
          "name": "",
          "type": "string"
        }
      ],
      "stateMutability": "view",
      "type": "function"
    },
    {
      "inputs": [
        {
          "internalType": "uint256",
          "name": "_id",
          "type": "uint256"
        },
        {
          "internalType": "uint256[]",
          "name": "_players",
          "type": "uint256[]"
        },
        {
          "internalType": "uint256[]",
          "name": "_winner",
          "type": "uint256[]"
        },
        {
          "internalType": "string",
          "name": "_score",
          "type": "string"
        }
      ],
      "name": "storeScore",
      "outputs": [],
      "stateMutability": "nonpayable",
      "type": "function"
    },
    {
      "inputs": [
        {
          "internalType": "address",
          "name": "_newOwner",
          "type": "address"
        }
      ],
      "name": "transferOwnership",
      "outputs": [],
      "stateMutability": "nonpayable",
      "type": "function"
    }
  ],
  "bytecode": "0x6080604052348015600f57600080fd5b50336000806101000a81548173ffffffffffffffffffffffffffffffffffffffff021916908373ffffffffffffffffffffffffffffffffffffffff1602179055503373ffffffffffffffffffffffffffffffffffffffff16600073ffffffffffffffffffffffffffffffffffffffff167f370116ad724b3fc87a2f6ff5e76e5a8cc7045b232d1431b7a4bca898c26fdace60405160405180910390a3611074806100ba6000396000f3fe608060405234801561001057600080fd5b506004361061004c5760003560e01c80636e6fb3c314610051578063893d20e81461006d578063e594b9571461008b578063f2fde38b146100bd575b600080fd5b61006b600480360381019061006691906108a6565b6100d9565b005b610075610276565b60405161008291906109a2565b60405180910390f35b6100a560048036038101906100a091906109bd565b61029f565b6040516100b493929190610b27565b60405180910390f35b6100d760048036038101906100d29190610b9f565b610474565b005b60008054906101000a900473ffffffffffffffffffffffffffffffffffffffff1673ffffffffffffffffffffffffffffffffffffffff163373ffffffffffffffffffffffffffffffffffffffff1614610167576040517f08c379a000000000000000000000000000000000000000000000000000000000815260040161015e90610c18565b60405180910390fd5b8360001515610175826105bf565b1515146101b7576040517f08c379a00000000000000000000000000000000000000000000000000000000081526004016101ae90610c84565b60405180910390fd5b7f23feee29beb4cd5bb92d8150d7fd070f451e515b9e4712448ebf4dba799e5170856040516101e69190610cb3565b60405180910390a16040518060600160405280858152602001848152602001838152506001600087815260200190815260200160002060008201518160000190805190602001906102389291906105e4565b5060208201518160010190805190602001906102559291906105e4565b50604082015181600201908161026b9190610eda565b509050505050505050565b60008060009054906101000a900473ffffffffffffffffffffffffffffffffffffffff16905090565b606080606083600115156102b2826105bf565b1515146102f4576040517f08c379a00000000000000000000000000000000000000000000000000000000081526004016102eb9061101e565b60405180910390fd5b6001600086815260200190815260200160002060000160016000878152602001908152602001600020600101600160008881526020019081526020016000206002018280548060200260200160405190810160405280929190818152602001828054801561038157602002820191906000526020600020905b81548152602001906001019080831161036d575b50505050509250818054806020026020016040519081016040528092919081815260200182805480156103d357602002820191906000526020600020905b8154815260200190600101908083116103bf575b505050505091508080546103e690610cfd565b80601f016020809104026020016040519081016040528092919081815260200182805461041290610cfd565b801561045f5780601f106104345761010080835404028352916020019161045f565b820191906000526020600020905b81548152906001019060200180831161044257829003601f168201915b50505050509050935093509350509193909250565b60008054906101000a900473ffffffffffffffffffffffffffffffffffffffff1673ffffffffffffffffffffffffffffffffffffffff163373ffffffffffffffffffffffffffffffffffffffff1614610502576040517f08c379a00000000000000000000000000000000000000000000000000000000081526004016104f990610c18565b60405180910390fd5b806000806101000a81548173ffffffffffffffffffffffffffffffffffffffff021916908373ffffffffffffffffffffffffffffffffffffffff16021790555060008054906101000a900473ffffffffffffffffffffffffffffffffffffffff1673ffffffffffffffffffffffffffffffffffffffff163373ffffffffffffffffffffffffffffffffffffffff167f370116ad724b3fc87a2f6ff5e76e5a8cc7045b232d1431b7a4bca898c26fdace60405160405180910390a350565b6000806001600084815260200190815260200160002060010180549050119050919050565b828054828255906000526020600020908101928215610620579160200282015b8281111561061f578251825591602001919060010190610604565b5b50905061062d9190610631565b5090565b5b8082111561064a576000816000905550600101610632565b5090565b6000604051905090565b600080fd5b600080fd5b6000819050919050565b61067581610662565b811461068057600080fd5b50565b6000813590506106928161066c565b92915050565b600080fd5b6000601f19601f8301169050919050565b7f4e487b7100000000000000000000000000000000000000000000000000000000600052604160045260246000fd5b6106e68261069d565b810181811067ffffffffffffffff82111715610705576107046106ae565b5b80604052505050565b600061071861064e565b905061072482826106dd565b919050565b600067ffffffffffffffff821115610744576107436106ae565b5b602082029050602081019050919050565b600080fd5b600061076d61076884610729565b61070e565b905080838252602082019050602084028301858111156107905761078f610755565b5b835b818110156107b957806107a58882610683565b845260208401935050602081019050610792565b5050509392505050565b600082601f8301126107d8576107d7610698565b5b81356107e884826020860161075a565b91505092915050565b600080fd5b600067ffffffffffffffff821115610811576108106106ae565b5b61081a8261069d565b9050602081019050919050565b82818337600083830152505050565b6000610849610844846107f6565b61070e565b905082815260208101848484011115610865576108646107f1565b5b610870848285610827565b509392505050565b600082601f83011261088d5761088c610698565b5b813561089d848260208601610836565b91505092915050565b600080600080608085870312156108c0576108bf610658565b5b60006108ce87828801610683565b945050602085013567ffffffffffffffff8111156108ef576108ee61065d565b5b6108fb878288016107c3565b935050604085013567ffffffffffffffff81111561091c5761091b61065d565b5b610928878288016107c3565b925050606085013567ffffffffffffffff8111156109495761094861065d565b5b61095587828801610878565b91505092959194509250565b600073ffffffffffffffffffffffffffffffffffffffff82169050919050565b600061098c82610961565b9050919050565b61099c81610981565b82525050565b60006020820190506109b76000830184610993565b92915050565b6000602082840312156109d3576109d2610658565b5b60006109e184828501610683565b91505092915050565b600081519050919050565b600082825260208201905092915050565b6000819050602082019050919050565b610a1f81610662565b82525050565b6000610a318383610a16565b60208301905092915050565b6000602082019050919050565b6000610a55826109ea565b610a5f81856109f5565b9350610a6a83610a06565b8060005b83811015610a9b578151610a828882610a25565b9750610a8d83610a3d565b925050600181019050610a6e565b5085935050505092915050565b600081519050919050565b600082825260208201905092915050565b60005b83811015610ae2578082015181840152602081019050610ac7565b60008484015250505050565b6000610af982610aa8565b610b038185610ab3565b9350610b13818560208601610ac4565b610b1c8161069d565b840191505092915050565b60006060820190508181036000830152610b418186610a4a565b90508181036020830152610b558185610a4a565b90508181036040830152610b698184610aee565b9050949350505050565b610b7c81610981565b8114610b8757600080fd5b50565b600081359050610b9981610b73565b92915050565b600060208284031215610bb557610bb4610658565b5b6000610bc384828501610b8a565b91505092915050565b7f53656e646572206973206e6f7420746865206f776e6572202100000000000000600082015250565b6000610c02601983610ab3565b9150610c0d82610bcc565b602082019050919050565b60006020820190508181036000830152610c3181610bf5565b9050919050565b7f436520746f75726e6f6920612064656a61206574652073746f636b6520210000600082015250565b6000610c6e601e83610ab3565b9150610c7982610c38565b602082019050919050565b60006020820190508181036000830152610c9d81610c61565b9050919050565b610cad81610662565b82525050565b6000602082019050610cc86000830184610ca4565b92915050565b7f4e487b7100000000000000000000000000000000000000000000000000000000600052602260045260246000fd5b60006002820490506001821680610d1557607f821691505b602082108103610d2857610d27610cce565b5b50919050565b60008190508160005260206000209050919050565b60006020601f8301049050919050565b600082821b905092915050565b600060088302610d907fffffffffffffffffffffffffffffffffffffffffffffffffffffffffffffffff82610d53565b610d9a8683610d53565b95508019841693508086168417925050509392505050565b6000819050919050565b6000610dd7610dd2610dcd84610662565b610db2565b610662565b9050919050565b6000819050919050565b610df183610dbc565b610e05610dfd82610dde565b848454610d60565b825550505050565b600090565b610e1a610e0d565b610e25818484610de8565b505050565b5b81811015610e4957610e3e600082610e12565b600181019050610e2b565b5050565b601f821115610e8e57610e5f81610d2e565b610e6884610d43565b81016020851015610e77578190505b610e8b610e8385610d43565b830182610e2a565b50505b505050565b600082821c905092915050565b6000610eb160001984600802610e93565b1980831691505092915050565b6000610eca8383610ea0565b9150826002028217905092915050565b610ee382610aa8565b67ffffffffffffffff811115610efc57610efb6106ae565b5b610f068254610cfd565b610f11828285610e4d565b600060209050601f831160018114610f445760008415610f32578287015190505b610f3c8582610ebe565b865550610fa4565b601f198416610f5286610d2e565b60005b82811015610f7a57848901518255600182019150602085019450602081019050610f55565b86831015610f975784890151610f93601f891682610ea0565b8355505b6001600288020188555050505b505050505050565b7f436520746f75726e6f69206e27657374207061732073746f636b65207375722060008201527f6c6520636f6e747261742e000000000000000000000000000000000000000000602082015250565b6000611008602b83610ab3565b915061101382610fac565b604082019050919050565b6000602082019050818103600083015261103781610ffb565b905091905056fea2646970667358221220e6eb3f0b4a187f448196306fb8682298b66f8f799309e933fb53dee8a1c8550464736f6c634300081b0033",
  "linkReferences": {},
  "deployedLinkReferences": {}
}